:020000040800F2
:10000000900D002091010008990100089B01000853
:100010009D0100089F010008A101000800000000E8
:10002000000000000000000000000000A301000824
:10003000A501000800000000A7010008152A00081B
:10004000AB010008AB010008AB010008AB010008E0
:10005000AB010008AB010008AB010008AB010008D0
:10006000AB010008AB010008AB010008AB010008C0
:10007000AB010008AB010008AB010008AB010008B0
:10008000AB010008AB010008AB010008AB010008A0
:10009000AB010008AB010008AB010008AB01000890
:1000A000AB010008AB010008AB010008AB01000880
:1000B000352A0008AB010008AB010008AB010008BD
:1000C000AB010008AB010008AB010008AB01000860
:1000D000AB010008AB010008AB010008AB01000850
:1000E000AB010008AB010008AB01000800F002F80A
:1000F00000F03FF80AA090E8000C82448344AAF183
:100100000107DA4501D100F034F8AFF2090EBAE880
:100110000F0013F0010F18BFFB1A43F0010318473B
:10012000A05B0000C05B0000103A24BF78C878C113
:10013000FAD8520724BF30C830C144BF04680C60ED
:10014000704700000023002400250026103A28BF35
:1001500078C1FBD8520728BF30C148BF0B60704739
:10016000642900F07D80002070471FB51FBD10B5C9
:1001700010BD00F0DDF91146FFF7F7FF02F0CAFCF1
:1001800000F0FBF903B4FFF7F2FF03BC00F0FEF947
:100190000948804709480047FEE7FEE7FEE7FEE71B
:1001A000FEE7FEE7FEE7FEE7FEE7FEE70448054957
:1001B000054A064B70470000312A0008ED00000890
:1001C00090070020900D0020900900209009002049
:1001D0000FB41CB5074B06AA7B44694600900598EE
:1001E00000F053F90020694600F062F91CBC5DF88C
:1001F00014FB0000D50200002DE9F0410E46044634
:10020000002020622046E168884730B3252805D0C9
:10021000D4E901219047206A401CF2E7E1682046BA
:1002200000278847050018D0A5F14100192802D8F9
:1002300020354FF400673246294620462760FFF7F5
:100240008FFF40B1012804D0F61D26F007060836BE
:10025000D8E7361DD6E72846DAE7206ABDE8F08100
:100260002DE9F0410646002410687529314616A58F
:1002700010D0AFF30080002802DA404213A507E057
:1002800031688A0701D512A502E0490704D511A5F6
:10029000012401E0AFF3008000210A2206F12407C7
:1002A00009E0B0FBF2FCB0FBF2F302FB1C003030C3
:1002B00078541846491C0028F3D123462A46304674
:1002C000BDE8F04100F082B8000000002D00000001
:1002D0002B00000020000000032A40F2308010F0C4
:1002E000030C00F0158011F8013BBCF1020F6244D1
:1002F00098BF11F801CB00F8013B38BF11F8013B62
:10030000A2F1040298BF00F801CB38BF00F8013B0E
:1003100011F0030300F0D180083AC0F0088051F8D2
:10032000043B083A51F804CBA0E80810F5E7121D89
:100330005CBF51F8043B40F8043BAFF30080D207A8
:1003400024BF11F8013B11F801CB48BF11F8012B74
:1003500024BF00F8013B00F801CB48BF00F8012B97
:1003600070474FF0000200B5134694469646203978
:1003700022BFA0E80C50A0E80C50B1F12001BFF45E
:10038000F7AF090728BFA0E80C5048BF0CC05DF8C4
:1003900004EB890028BF40F8042B08BF704748BF12
:1003A00020F8022B11F0804F18BF00F8012B704786
:1003B00070477047704710B500F0B2F8006810BD84
:1003C00010B5044600F0ACF8046010BD2DE9F0470C
:1003D0000D4699469246044600F1240801688806B5
:1003E00004D5E06921F01001216000E00120A8425D
:1003F00001DD471B00E00027A1697A1902EB090023
:10040000081AA0612078C00602D42046AFF300800D
:10041000002608E0D4E901211AF806009047206A76
:10042000401C761C20624E45F4DB2078C0060AD5BD
:100430002046AFF3008006E0D4E901213020904748
:10044000206A401C2062381EA7F10107F4DC07E097
:10045000D4E9012118F805009047206A401C206269
:10046000281EA5F10105F3DC2046AFF300802078BB
:10047000000602D50220BDE8F0870120FBE700005E
:1004800001694A1C02610878704700B58FB0CDE958
:1004900001310021059105497944CDE90310114648
:1004A0006846FFF7A9FE0FB000BD0000E5FFFFFFA3
:1004B0000A6802F8010B0A60704710B5203AC0F0D4
:1004C0000B80B1E81850A0E81850B1E81850A0E827
:1004D0001850203ABFF4F5AF5FEA027C24BFB1E8C0
:1004E0001850A0E8185044BF18C918C0BDE8104003
:1004F0005FEA827C24BF51F8043B40F8043B08BF0C
:100500007047D20728BF31F8023B48BF11F8012BD2
:1005100028BF20F8023B48BF00F8012B70470000BD
:10052000004870472000002000487047200000204D
:100530007546FFF7F9FFAE4605006946534620F0C1
:100540000700854618B020B5FFF730FEBDE8204013
:100550004FF000064FF000074FF000084FF0000B7F
:10056000AC46ACE8C009ACE8C009ACE8C009ACE8EE
:10057000C00921F007018D46704710B50446AFF35E
:1005800000802046BDE81040FFF7FCBD014918205F
:10059000ABBEFEE726000200704700000420C4F254
:1005A00001000168022262F31A61016070470000D5
:1005B00040F22061C2F200010A6840F21403C2F264
:1005C000000393F800C0431C18BF604409E000BF5B
:1005D0000B689B1A834228BF70470B689B1A8342A3
:1005E00007D20B689B1A834203D20B689B1A834283
:1005F000EED370472DE9F04F81B00C460968002911
:1006000000F0F680824640F2004541F200404FF68D
:10061000FF7CC4F20105C4F2010004220026012778
:10062000C1F2100C4FF00F0E4FF000094FF0000B0D
:10063000824508BF0322009243E000BF0122BC466E
:100640004FF00F0E06F00C070EFA07F5A943BA405B
:100650004FEA9903114340F82310606840F20045C7
:10066000C4F20105C103296854BF21EA080141EA27
:10067000080129606968820354BF21EA080141EA40
:100680000801696040F20C43C202A968C4F2010388
:1006900054BF21EA080141EA08018002A9604FF035
:1006A0000107186854BF20EA080040EA08001860F3
:1006B000216809F1010931FA09F006F1040600F098
:1006C000978007FA09F811EA080FF1D060686045D1
:1006D00012DC122856D8DFE800F0350B4549555595
:1006E00055555555555555555555554D510000BF06
:1006F000D4F80CB046E000BF4FF6FF71C1F2210103
:1007000088420FDC0021C1F2110188421AD0002179
:10071000C1F21201884215D00021C1F221018842A4
:1007200010D02FE00021C1F2220188420AD000211E
:10073000C1F23101884205D00021C1F23201884264
:1007400020D100BFA06848B1012814BFCAF81480A6
:10075000CAF810804FF0080B14E000BF4FF0040BF4
:1007600010E000BFE06800F1080B0BE04FF0000B59
:1007700008E000BFE06800F1040B03E0E06800F16E
:100780000C0B00BF30465146B9F1080F24BF20388A
:1007900004310A680EFA00F39A430BFA00F0104392
:1007A0000860E079C0067FF583AF674601F0C8FBBB
:1007B000A5F57E7029F0030140F600024158C4F20D
:1007C0000102924512D040F60042C4F20102924565
:1007D0003FF434AF41F20002C4F201029245009AA4
:1007E000BC464FF00F0E08BF02222BE7002226E77F
:1007F00001B0BDE8F08F00008068084018BF0120FC
:1008000070470000C26802EA0103914341EA0341D4
:1008100001617047002A08BF0904016170470000A8
:1008200040F22060C2F200000068704770B50446D4
:1008300001F0B6F9242084F834002068016821F022
:1008400001010160016841F400410160016821F487
:100850000041016001F052FC4DF68361C4F21B318E
:10086000A0FB0112D4E9001C4FEA924E4B684FF4F2
:10087000967523F03F0343EA92434B6044F6D3530B
:100880000E6A0EFB05F5C1F26203A5FB033526F0E7
:100890003F03AE0948F2A165C0F20105AC4538BF7F
:1008A000960C721C1A430A6248F2A063CA69C0F22D
:1008B00001039C450CD801384FEA4C03B0FBF3F020
:1008C00001306FF31F30042898BF04201FE000BFE1
:1008D000A368013863B119230CFB03F3B0FBF3F0F9
:1008E00001306FF31F3078B100F5804008E000BFA1
:1008F0000CEB4C03B0FBF3F001306FF31F3028B169
:1009000000F5004003E000BF012000E001204CF6AC
:10091000FF739A431043C8610868D4E9072320F0A5
:10092000C000104318430860886848F2FF3204F1A1
:100930000C0690434CCE18431043A5698860C868E4
:1009400020F0FF0030432843C860086840F00100F1
:10095000086000202021606484F83410206384F84B
:10096000350070BD2DE9F04F81B01D4690460E4612
:100970000446FFF755FF94F83410202914D1074698
:1009800021688869800715D5FFF74AFFC01B192821
:10099000F6D900202021206384F8341084F8350033
:1009A000616C0225BDE000BF0225284601B0BDE80C
:1009B000F08F00BF012084F840000868C00703D111
:1009C000086840F001000860086806F0FE0920F49D
:1009D00000600860242084F8340000206064002057
:1009E000CFF6FF70012605F1010A4FF0A00BE0627F
:1009F000B8F1020F98BF4FF00208086840F4807009
:100A000008604869C0070FD1BAF1000F56D0002D19
:100A100000F09C80FFF704FFC01BA84200F2988002
:100A200021684869C007F5D0C1F81090FFF7F8FEBB
:100A300021684B694A6994F83470A02F07461ED08C
:100A400013F0020008BF12F4806018D1FFF7E8FE2F
:100A500035B1C01BA84288BF84F834B002E000BFA3
:100A600084F834B021684A69486994F83430A02B7E
:100A700005D012F0020208BF10F48060E6D02020FA
:100A800084F8340048690A68800742F400720A60FA
:100A900022D46FF4806048618869800709D500BF5F
:100AA000FFF7BEFEC01B192832D82168886980076D
:100AB000F6D401364645A0D13CE000BF4869C007E6
:100AC000B2D14869C00704BF48695FEAC070ABD1C2
:100AD0004869C007F2D0A7E7002500954869009053
:100AE0008869009000988869800708D5FFF798FE0C
:100AF000C01B19280CD8206880698007F6D42020F4
:100B000084F8340084F84050284601B0BDE8F08FE6
:100B100000202021206384F8341084F83500616CB3
:100B2000012541F02001616484F84000284601B0AD
:100B3000BDE8F08F202084F834000020012584F8DF
:100B40004000284601B0BDE8F08F00BFFFF768FE07
:100B500000202021206384F8341084F83500616C73
:100B6000032541F020016164216884F84000086891
:100B7000C00544BF4FF400706064284601B0BDE872
:100B8000F08F00002DE9F04381B01F4616468846DD
:100B90000446FFF745FE94F8341020291CD1054681
:100BA0002068816989071DD5FFF73AFE401B192887
:100BB000F6D900202021206384F8341084F8350011
:100BC000616C022641F02001616484F840003046E7
:100BD00001B0BDE8F08300BF0226304601B0BDE899
:100BE000F08300BF012184F840100168C90703D1D8
:100BF000016841F001010160016821F400610160B8
:100C0000212184F83410102184F83510002161640A
:100C100066626785618D21850021CFF6FF71E162F3
:100C2000E16A11F5803F18BF01294DD1016841F4F7
:100C3000807101604169DDF82090C90712D1B9F1D6
:100C4000000F47D019F1010116D14169C90709D137
:100C50004169C90704BF41695FEAC17102D14169B5
:100C6000C907F2D02169B1F5804F0BD1FE2170E0A8
:100C700020684169C907F5D1FFF7D2FD401B4845FF
:100C8000F6D929E0062101EAD811F0310161416964
:100C900009075DD4416919F1010201F4806135D081
:100CA00000294CD1B9F1000F00F04A81FFF7B8FDDF
:100CB000401B484500F2468120684169090747D436
:100CC00041694905F2D53AE00829AFD0216B1229D4
:100CD000ACD0AFE7FFF7A4FD00202021206384F80B
:100CE000341084F83500616C012641F02001616404
:100CF000216884F840000868C00544BF4FF40070C4
:100D00006064304601B0BDE8F08300BFB9B9416905
:100D100009071DD44169490511D44169090717D450
:100D2000416949050BD44169090711D44169490555
:100D300005D4416909070BD441694905E7D5016824
:100D400041F4007101606FF4806141610420FAE0B8
:100D5000FF2101EA08010161416989073AD441692B
:100D600019F1010201F4806112D051BBB9F1000FF9
:100D700000F0E280FFF754FD401B484500F2DE80A2
:100D800020684169890725D441694905F2D518E0F1
:100D9000B9B9416989071DD44169490511D441692F
:100DA000890717D4416949050BD44169890711D4D2
:100DB0004169490505D4416989070BD44169490551
:100DC000E7D5016841F4007101606FF48061416111
:100DD0000420B8E0002600964169009181690091E5
:100DE0000099218D002900F0978009F10108014642
:100DF00051F8142F120635D4B8F1000F16D0B9F1FE
:100E0000000F00F0B18000BF0868400500F1B48019
:100E1000FFF706FD401B484500F2AB802068014605
:100E200051F8142F1206EFD51CE000BF0A685205D6
:100E300000F1A2800A68120614D40A68520500F173
:100E40009B800A6812060DD40A68520500F194804E
:100E50000A68120606D40A68520500F18D800A68F5
:100E60001206E3D5636A194611F8012B026161622B
:100E7000618D01396185278D0146A7F1010CA4F828
:100E800028C051F8142F52070DD55FEA0C420AD042
:100E90005A78A7F1020C02619A1C6262628D013AD3
:100EA0006285A4F828C00A68520731D4B8F1000F4F
:100EB00016D0B9F1000F00F07D8000BF0868400532
:100EC00000F18080FFF7ACFC401B484577D82068D4
:100ED000014651F8142F5207F0D5B4F828C017E096
:100EE0000A6852056ED40A68520711D40A6852057E
:100EF00068D40A6852070BD40A68520562D40A689B
:100F0000520705D40A6852055CD40A685207E7D52F
:100F10005FEA0C417FF46BAF016841F4007101603E
:100F2000202084F8340084F8356084F8406030462E
:100F300001B0BDE8F08300BFFFF772FC202002E0A3
:100F4000FFF76EFC202000212022216384F834204A
:100F500084F83510626C01261043606484F84010F8
:100F6000304601B0BDE8F0830868400504D4FFF7BF
:100F700057FC202004E000BF6FF48060086004206C
:100F800000212022216384F8342084F83510626C1B
:100F90001043606484F84010606C042825D12068F8
:100FA0000126016841F400710160304601B0BDE8DE
:100FB000F08300BF0868400504D4FFF731FC20200F
:100FC00004E000BF6FF4806008600420002120224C
:100FD000216384F8342084F83510626C1043606417
:100FE00084F84010606C0428D9D00126304601B046
:100FF000BDE8F0832DE9F04782B0044600201E468C
:1010000092460F460090FFF70BFC94F8341020290D
:1010100016D1054620688169890715D5FFF700FCC0
:10102000401B1928F6D900202021206384F83410B1
:1010300084F83500616C41F02001616484F840005F
:10104000022002B0BDE8F087012284F84020036846
:101050000B990A9ADB0703D1036843F0010303608D
:10106000036840F2020823F400630360222384F83B
:101070003430402384F83530002363646262618534
:10108000618DC0F201082185A8F10211E1620168B9
:10109000DDF8309041F480610160016841F48071B5
:1010A00001604169C90713D1B9F1000F00F05C81FB
:1010B00019F1010130D14169C90709D14169C90755
:1010C00004BF41695FEAC17102D14169C907F2D029
:1010D00007F0FE0707614169890745D4416919F1A5
:1010E000010201F480611DD0A9BBB9F1000F00F02D
:1010F0007B8100BFFFF794FB401B484500F27681DF
:101100002068416989072FD441694905F2D522E059
:1011100020684169C907DBD1FFF782FB401B4845C6
:10112000F6D923E1B9B9416989071DD44169490557
:1011300011D44169890717D4416949050BD4416924
:10114000890711D44169490505D4416989070BD440
:1011500041694905E7D5016841F4007101606FF408
:1011600080614161042042E100210191014651F872
:10117000142F01924A680192019A0A68120623D438
:10118000B9F1000F00F0088119F1010240F0BE80B2
:101190000A68520500F108810A68120614D40A6828
:1011A000520500F101810A6812060DD40A68520541
:1011B00000F1FA800A68120606D40A68520500F1A6
:1011C000F3800A681206E3D5012E2BD04FEA1A21CC
:1011D0000161014651F8142F120623D4B9F1000F12
:1011E00000F0DA8019F1010240F0BA800A68520575
:1011F00000F1DA800A68120614D40A68520500F178
:10120000D3800A6812060DD40A68520500F1CC801A
:101210000A68120606D40A68520500F1C5800A68F9
:101220001206E3D55FFA8AF10161014651F8142FE5
:10123000120622D4B9F1000F00F0AE8019F10102BC
:1012400073D10A68520500F1AF800A68120614D4FF
:101250000A68520500F1A8800A6812060DD40A68CF
:10126000520500F1A1800A68120606D40A685205E8
:1012700000F19A800A681206E3D5016841F4807192
:1012800001604169C90712D1B9F1000F6CD019F1A1
:10129000010153D14169C90709D14169C90704BF97
:1012A00041695FEAC17102D14169C907F2D047F0D3
:1012B00001010161204641464A462B4600F090FC60
:1012C000002840F08D80208D022800F0A1800128A8
:1012D00000F0B280002840F0C38000200190206818
:1012E00041690191816901910199016841F400719D
:1012F0000160C1E0FFF794FA401B484551D82068CF
:10130000014651F8142F12063FF55EAF08684005FC
:10131000F0D549E0FFF784FA401B484541D82068E2
:10132000014651F8142F1206A7D408684005F1D5DC
:101330003AE000BF20684169C907B8D1FFF770FAE9
:10134000401B4845F6D911E0FFF76AFA401B4845B3
:1013500027D82068014651F8142F12063FF562AFD6
:1013600008684005F0D51FE0FFF75AFA0020202159
:10137000206384F8341084F83500616C41F020015A
:101380006164216884F840000868C00544BF4FF4D8
:101390000070606424E000BF0868400504D4FFF7D3
:1013A0003FFA202004E000BF6FF480600860042052
:1013B00000212022216384F8342084F83510626CE7
:1013C0001043606484F84010606C042808D12068E1
:1013D000016841F400710160012002B0BDE8F087AE
:1013E000012002B0BDE8F087FFF71AFA20200021A3
:1013F0002022216384F8342084F83510626C104375
:10140000606484F84010012002B0BDE8F08700BF9E
:101410002068016841F400610160002072B601900B
:10142000206841690191816901910199016821F464
:101430008061016062B61FE02068016821F480616C
:101440000160002072B601902068416901918169B4
:1014500001910199016841F40071016062B60BE0ED
:101460002068016841F480610160002101914169B7
:101470000191806901900198208D002800F01B8166
:1014800040F210084BF2895A09F10106C2F2000835
:10149000C1F2F84A232780B2032819D8022843D082
:1014A00001286BD1B9F1000F00F0F28020680146ED
:1014B00051F8142F520600F1EF800868C00600F1C1
:1014C0002781FFF7ADF9401B4845EFD915E100BF73
:1014D000B9F1000F10D02068014651F8142F5206C0
:1014E0000FD40868C00600F11381FFF799F9401B7B
:1014F0004845F0D901E100BF20684169490640F143
:10150000F5800069616A0870606A2268411C208D5C
:10151000616201382085638D013B638553695B07F8
:1015200040F1C6801069B9E020684169490710D4CC
:10153000002E00F08D80B9F1000F00F0FD80FFF764
:101540006FF9401B484500F2F98020684069400768
:10155000F5D572B62068616A026842F400720260D2
:1015600000690870606A218D01306062481E208524
:10157000608D0138608562B666E000BF2068416911
:1015800049070FD4002E73D0B9F1000F00F0D480BA
:10159000FFF746F9401B484500F2D08020684169BA
:1015A0004907F5D5016821F48061016072B62068B1
:1015B000616A00690870606A218D013001396062DA
:1015C0002185618D01396185D8F80010C908A1FB1A
:1015D0000A12110A7943009100990139009100998A
:1015E000002971D021684A6952071DD40099013938
:1015F00000910099002967D021684A69520713D4E5
:10160000009901390091009900295DD021684A694B
:10161000520709D40099013900910099002953D04B
:1016200021684A695207D7D50A6842F400720A60F5
:1016300009690170606A218D01306062481E208551
:10164000608D0138608562B62068616A006925E0B6
:10165000416949073FF57DAF416949075CBF416971
:101660005FEA41713FF575AF41694907F0D570E711
:101670004169490796D4416949075CBF41695FEAFE
:1016800041713FF58FAF41694907F1D58AE700BF46
:1016900020684169490629D50069616A0870606A55
:1016A000218D01306062481E2085618D0139618580
:1016B00001047FF4F0AE202084F83400002084F888
:1016C000400002B0BDE8F08700202021206384F8AC
:1016D000341084F83500616C41F02001616462B619
:1016E00084F84000012002B0BDE8F08750F8141FD4
:1016F000C90601460CD4FFF793F80020202120638F
:1017000084F8341084F83500606C40F020000AE062
:101710006FF01000086000202021206384F834104E
:1017200084F83500606C6064002084F8400001207B
:1017300002B0BDE8F08700BFFFF772F8002020215B
:10174000206384F8341084F83500616C41F0200186
:10175000616484F84000012002B0BDE8F087000019
:101760002DE9F04381B01F4690460E460446FFF730
:1017700057F894F83410202916D10546206881695D
:10178000890715D5FFF74CF8401B1928F6D900201A
:101790002021206384F8341084F83500616C41F016
:1017A0002001616484F84000022001B0BDE8F083AC
:1017B000012284F8402003680999089ADB0703D1C5
:1017C000036843F0010303600368DDF8289023F405
:1017D00000630360212384F83430402384F83530DB
:1017E0000023636462626185618D21850021CFF6EB
:1017F000FF71E162016841F4807101604169C907CC
:1018000012D1B9F1000F39D019F1010130D141697C
:10181000C90709D14169C90704BF41695FEAC171BC
:1018200002D14169C907F2D006F0FE0101614169A8
:1018300089075DD4416919F1010201F4806135D055
:1018400000294CD1B9F1000F00F09681FEF7E8FFB6
:10185000401B484500F2928120684169890747D4BE
:1018600041694905F2D53AE020684169C907DBD1F1
:10187000FEF7D6FF401B4845F6D901E0FEF7D0FF42
:1018800000202021206384F8341084F83500616C36
:1018900041F020016164216884F840000868C005B7
:1018A00044BF4FF40070606462E100BFB9B94169A0
:1018B00089071DD44169490511D44169890717D4A5
:1018C000416949050BD44169890711D4416949052A
:1018D00005D4416989070BD441694905E7D50168F9
:1018E00041F4007101606FF480614161042046E1C0
:1018F00000210091014651F8142F00924A6800928D
:10190000009A0A68120623D4B9F1000F00F00C8186
:1019100019F1010240F0E4800A68520500F10C81DF
:101920000A68120614D40A68520500F105810A6893
:1019300012060DD40A68520500F1FE800A681206EC
:1019400006D40A68520500F1F7800A681206E3D54A
:10195000012F2BD04FEA18210161014651F8142FB5
:10196000120623D4B9F1000F00F0DE8019F1010254
:1019700040F0C6800A68520500F1DE800A6812064F
:1019800014D40A68520500F1D7800A6812060DD4F3
:101990000A68520500F1D0800A68120606D40A6867
:1019A000520500F1C9800A681206E3D55FFA88F192
:1019B0000161218D002955D009F10106014651F838
:1019C000142F120632D4AEB1B9F1000F00F0AC8082
:1019D0000868400500F1B080FEF722FF401B484533
:1019E00000F2A7802068014651F8142F1206EFD5A7
:1019F0001CE000BF0A68520500F19E800A681206CA
:101A000014D40A68520500F197800A6812060DD4B2
:101A10000A68520500F190800A68120606D40A6826
:101A2000520500F189800A681206E3D5626A114600
:101A300011F8013B0361238D6162591E2185678D79
:101A4000013F678547697F070AD50F0408D05178A1
:101A50000161911C6162991E2185628D013A628546
:101A60000904ABD1014651F8142F52071DD4B9F126
:101A7000000F59D019F1010251D10A6852055BD407
:101A80000A68520711D40A68520555D40A685207E9
:101A90000BD40A6852054FD40A68520705D40A6865
:101AA000520549D40A685207E7D5016841F400712C
:101AB0000160202084F83400002084F8350084F888
:101AC000400001B0BDE8F083FEF7AAFE401B484588
:101AD0002FD82068014651F8142F12063FF538AF71
:101AE00008684005F0D527E0FEF79AFE401B484500
:101AF0001FD82068014651F8142F12063FF556AF43
:101B000008684005F0D517E0FEF78AFE401B4845FF
:101B10000FD82068014651F8142F5207C5D4086821
:101B20004005F1D508E000BF0868400504D4FEF781
:101B300077FE202004E000BF6FF48060086004207E
:101B400000212022216384F8342084F83510626C4F
:101B50001043606484F84010606C042808D1206849
:101B6000016841F400710160012001B0BDE8F0831B
:101B7000012001B0BDE8F083FEF752FE20200021D5
:101B80002022216384F8342084F83510626C1043DD
:101B9000606484F84010012001B0BDE8F0830000CB
:101BA00010B584B045F200440068C4F2000400217E
:101BB000A042029102D004B010BD00BF00F07EFA36
:101BC000C0200090122001900320039004F53840BB
:101BD0006946FEF70FFD00F0A5FA04B010BD000045
:101BE0002DE9F04381B0814601F47F050068182695
:101BF000B5F5803F08BF142686598FB200F1140155
:101C000098460B4606EA070618BF00F11803BE42C5
:101C100004D1002001B0BDE8F08300BF16460A6879
:101C2000741C02F4806217D09ABBDEB3FEF7F8FD95
:101C3000A0EB0800B04237D8D9F800001821B5F55C
:101C4000803F08BF142141583940B942E1D0416971
:101C50004905EBD51DE000BFDAB91A683A40BA422F
:101C6000D7D00A68520514D41A683A40BA42D0D084
:101C70000A6852050DD41A683A40BA42C9D00A68B7
:101C8000520506D41A683A40BA42C2D00A685205D0
:101C9000E3D5016841F4007101606FF48061416136
:101CA000042002E0FEF7BCFD202000212022C9F81C
:101CB000301089F8342089F83510D9F844201043C1
:101CC000C9F8440089F84010012001B0BDE8F08354
:101CD00080B582B040F21401C2F2000140F210005F
:101CE0000978C2F200004FF47A720068B2FBF1F199
:101CF000B0FBF1F0411E0020B0EB116F0DD14EF2A0
:101D00001002CEF2000251604EF62351CEF20001D5
:101D1000F0230B7090600720106000F011F941F281
:101D20001C00C4F20200016841F0805101600068AB
:101D300000F080500190019802B0BDE88040FEF7AD
:101D40002DBC000040F21401C2F2000140F210006C
:101D50000978C2F200004FF47A720068B2FBF1F128
:101D6000B0FBF1F0411E0020B0EB116F18BF7047BF
:101D70004EF21002CEF2000251604EF62351CEF226
:101D80000001F0230B709060072010607047000086
:101D90000EC070472DE9F04F81B088460446D0E967
:101DA0000016806827690090304602F081FA0146EB
:101DB000304602F009FB054660614046394602F0B4
:101DC00091FC0146284602F0C1FB394602F070FA48
:101DD0008046E060284602F03FFA0B4600210246AA
:101DE000C3F6F071002002F049F9814630468A4678
:101DF00002F032FA06468B463846414602F072FC43
:101E000020F0004002F028FA054600980F4602F044
:101E100023FA2A463B4601F04DFF05460F46484649
:101E2000514632465B4601F045FF2A463B4601F0EB
:101E300067FC01F033FC60604046C4F8108001B0DC
:101E4000BDE8F08F2DE9F04184B0044601260DF184
:101E50000F006425CDE900062046D021752201231C
:101E60000295FFF7C7F89DF80F00682832D14FF0B0
:101E700000080DF10E072046D0216B2201238DF8BA
:101E80000E80CDE900760295FFF76AFC07208DF8F9
:101E90000E002046D02119220123CDE900760295BB
:101EA000FFF75EFC2046D0211C2201238DF80E8016
:101EB000CDE900760295FFF753FC2046D0211B2286
:101EC00001238DF80E80CDE900760295FFF748FCDE
:101ED0009DF80F0004B0BDE8F081000070B586B039
:101EE0000C4606210DF112024FF0640CCDE90021E1
:101EF000D0213B220123CDF808C0FFF77BF8BDF8C5
:101F00001200BDF8145001BA090C218029BABDF89D
:101F10001660090C618031BA090CC0BAA18001F0C9
:101F200039FEC4E90201E8BA01F034FEC4E9040153
:101F3000F0BA01F02FFEC4E9060106B070BD000042
:101F400081B041F21800C4F20200016841F00101C1
:101F50000160006800F001000090009801B0704737
:101F6000F0B581B020B30446006841F20406810751
:101F7000C4F2020611D5410703D5316841F4E0618E
:101F80003160010703D5316841F460513160316837
:101F9000A26821F0F00111433160C10731D06068BF
:101FA000022809D0012825D156F8041C890307D43A
:101FB000012001B0F0BD00BF56F8041C8901F7D51F
:101FC000316821F0030108433060FEF729FC054623
:101FD00041F288373068616800F00C00B0EB810F87
:101FE0000ED0FEF71DFC401BB842F3D9032001B010
:101FF000F0BD00BF56F8041C8907D9D5E0E700BF43
:102000002068410705D53168E26821F4E061114399
:102010003160000706D53068216920F4605040EA3D
:10202000C1003060326802F00C00082841F2002044
:10203000C0F27A0019D145F6B043C2F38341C0F62D
:102040000003595CD20305D440F60010C0F23D00F5
:1020500048430AE0326844F2CE73C2F34042C0F60D
:1020600000039A5C4843B0FBF2F0316844F2D0724E
:10207000C1F30311C0F60002515C40F2100220FAD5
:1020800001F140F21800C2F200000068C2F2000242
:102090001160FFF757FE002001B0F0BD81B041F2A2
:1020A0001800C4F20200016841F0040101600068F8
:1020B00000F004000090009801B0704781B041F238
:1020C0001800C4F20200016841F0080101600068D4
:1020D00000F008000090009801B0704781B041F214
:1020E0001800C4F20200016841F02001016000689C
:1020F00000F020000090009801B0704740F21000FE
:1021000041F20401C2F20000C4F202010068096851
:1021100044F2E072C1F30221C0F60002515CC840F3
:102120007047000081B041F21C00C4F20200016857
:1021300041F400110160006800F400100090009864
:1021400001B070472DE9F04182B0002878D00446F4
:10215000007841F20006C007C4F2020635D070686C
:1021600000F00C0004282BD0706800F00C00082848
:1021700002D17068C00323D46068B0F5A02F00F0CE
:102180007381B0F5803F00F07381002840F07481C6
:10219000306820F480303060306820F48020306077
:1021A000FEF73EFB054600BF306880030DD5FEF705
:1021B00037FB401B64284FF00300F5D93DE000BF1A
:1021C0003068800301D56068D0B32078800718D5C7
:1021D000706810F00C0F07D0706800F00C00082831
:1021E0006ED17068C0036BD43068800702D5206957
:1021F000012825D13068616920F0F80040EAC1006B
:102200003060207800071FD42078400732D4E56979
:1022100095B1706800F00C00082840F08F80012D07
:102220000ED07068216A00F480328A4208D1616A57
:1022300000F47010884203D1002002B0BDE8F081A4
:10224000012002B0BDE8F081A069002862D0002022
:10225000C4F242200121C0F88014FEF7E1FA0546DD
:10226000706A800700F18C80FEF7DAFA401B0228C2
:10227000F6D916E1F06910F0805808D1F06940F005
:102280008050F061F06900F080500090009847F2B3
:102290000007C4F200073868C00529D4386840F444
:1022A00080703860FEF7BCFA054600BF3868C0058C
:1022B0001ED4FEF7B5FA401B6428F7D9F1E000BF41
:1022C0002069002840F20000C4F2422000F0828021
:1022D00001210160FEF7A4FA054600BF30688007BF
:1022E0003FF588AFFEF79CFA401B6428F6D9D8E08A
:1022F000E068002800F08080052800F09580012823
:1023000000F09680306A20F001003062306A20F0E0
:10231000040090E00020C4F242200021C0F88014A4
:10232000FEF77EFA054600BF706A80077FF56CAF46
:10233000FEF776FA401B0228F6D9B2E00027C4F275
:10234000422700203866FEF76BFA022D05460BD1B6
:102350003068800140F1AA80FEF762FA401B022833
:102360004FF00300F4D968E7306880017FF564AF6F
:10237000FEF756FA401B02284FF00300F4D95CE741
:1023800040F21000C2F20000006844F6D351C1F2DE
:102390006201A0FB0101480A019000BF00BF019843
:1023A000411E002801913FF42FAF00BF0198411E4C
:1023B000002801913FF428AF00BF0198411E00287A
:1023C00001913FF421AF00BF0198411E0028019107
:1023D000E4D119E700210160FEF722FA054600BFAB
:1023E000306880077FF50DAFFEF71AFA401B6428AE
:1023F0004FF00300F4D920E7306A20F0010030628A
:10240000306A20F004003062FEF70AFA054600BF89
:10241000306A80071ED5FEF703FA401B64284FF090
:102420000300F5D909E700BF306A40F004003062CC
:10243000306A40F001003062FEF7F2F9054600BF55
:10244000306A800706D4FEF7EBF9401B6428F7D901
:1024500027E000BFB8F1000F7FF4D9AEF06920F09B
:102460008050F061D3E600BF306840F480203060D7
:10247000306840F4803006E0306820F4803030600E
:10248000306820F480203060FEF7CAF9054600BFAE
:10249000306880033FF599AEFEF7C2F9401B64280F
:1024A000F6D9032002B0BDE8F08100BF206AB0F584
:1024B000803F05D17168A26821F400311143716039
:1024C0007168626A21F4741111430843706001203D
:1024D0003866FEF7A5F90446306880013FF5ACAEDA
:1024E000FEF79EF9001B02284FF00300F4D9A4E682
:1024F00081B041F21C00C4F20200016841F0010108
:102500000160006800F001000090009801B0704781
:1025100080B540F25010C2F200004FF48061FDF728
:1025200020FFBDE8804000F025BA000040F28002A4
:10253000C2F2000210805180704700002DE9F04186
:1025400082B040F25050C2F200007821012244F6DD
:102550002063FEF707FA4FF0000418B1204602B0DE
:10256000BDE8F08140F250554FF42E40C2F2000514
:10257000ADF806000A260DF106022846782102234E
:102580000096FEF7FFFA4FF400580DF106022846B8
:1025900078210223ADF806800096FEF7F3FA4FF497
:1025A00080570DF10602284678210223ADF8067007
:1025B0000096FEF7E7FA4FF43040ADF806000DF153
:1025C00006022846782102230096FEF7DBFA4FF434
:1025D0004840ADF806000DF1060228467821022396
:1025E0000096FEF7CFFA0DF1060228467821022365
:1025F000ADF806400096FEF7C5FA0DF10602284632
:1026000078210223ADF806700096FEF7BBFA4FF46E
:102610008040ADF806000DF106022846782102231D
:102620000096FEF7AFFA4FF40140ADF806000DF149
:1026300006022846782102230096FEF7A3FA4FF4FB
:102640007F40ADF806000DF10602284678210223EE
:102650000096FEF797FA4FF42140ADF806000DF111
:1026600006022846782102230096FEF78BFA4FF4E3
:102670002640ADF806000DF1060228467821022317
:102680000096FEF77FFA4FF42840ADF806000DF1F2
:1026900006022846782102230096FEF773FA4FF4CB
:1026A0007C50ADF806000DF1060228467821022381
:1026B0000096FEF767FA4FF42440ADF806000DF1DE
:1026C00006022846782102230096FEF75BFA4FF4B3
:1026D0005340ADF806000DF106022846782102238A
:1026E0000096FEF74FFA0DF10602284678210223E4
:1026F000ADF806400096FEF745FA4FF45540ADF8A8
:1027000006000DF106022846782102230096FEF706
:1027100039FA4FF47040ADF806000DF10602284674
:10272000782102230096FEF72DFA4FF45940ADF8B8
:1027300006000DF106022846782102230096FEF7D6
:1027400021FA4FF40850ADF806000DF106022846B4
:10275000782102230096FEF715FA4FF45A40ADF89F
:1027600006000DF106022846782102230096FEF7A6
:1027700009FA4FF49050ADF806000DF10602284614
:10278000782102230096FEF7FDF94FF45B40ADF887
:1027900006000DF106022846782102230096FEF776
:1027A000F1F90DF10602284678210223ADF80680E2
:1027B0000096FEF7E7F94FF40D40ADF806000DF175
:1027C00006022846782102230096FEF7DBF94FF433
:1027D000A050ADF806000DF106022846782102232C
:1027E0000096FEF7CFF94FF42F40ADF806000DF13B
:1027F00006022846782102230096FEF7C3F94FF41B
:102800003850ADF806000DF1060228467821022363
:102810000096FEF7B7F940F25010C2F200004FF4F4
:102820008061FDF79EFD00F0A5F840F28000C2F245
:10283000000004600124204602B0BDE8F0810000E1
:102840002DE9F04F85B040F28006C2F20006B6F8DE
:1028500000A00F7807EB0A037F2B07D8B6F802E039
:1028600091F801B00BEB0E033F2B03D9002005B00C
:10287000BDE8F08FBBF1000F009057D02038002644
:102880003C4604920190CDF808E003E000240136B4
:102890005E454BD2002CF9D00EEB06039DB23F2DC6
:1028A000F5D801984C680BFB0065012034F8152021
:1028B00003F0070400FA04FC4FF68070C0F20F002A
:1028C00000EA03186FEA0C090024039604E000BF35
:1028D0000F780134BC4223D20AEB0407BFB27F2F2A
:1028E000F6D8049802FA04F540F25016A0F1010E51
:1028F0002D044744C2F20006D346B0FA80FABEFA6D
:102900008EF0F55D4FEA501058BF4FEA5A10DA4684
:1029100005EA0903002818BF45EA0C03F355D7E779
:1029200091F801B0DDE902E63C46B0E7F8B240F2CA
:1029300080015044C2F2000108805DF8140BBDE82C
:10294000F08F000070B503787BB114460D46461C2D
:10295000D8B229462246FFF773FF16F8011C8842B9
:1029600006D116F8013B002BF2D1002070BD00BF4C
:10297000084670BD2DE9F04FC1B00DF1040B40F2D7
:1029800050560BF101094FF000086FF07F050A2443
:10299000C2F200064FF0000A40F250108035C2F239
:1029A00000002F18AAF150008DF80500304678215C
:1029B0005A4602238DF804800094FEF7E3F830466F
:1029C00078215A460223ADF804800094FEF7DAF825
:1029D0004FF48050ADF80400304678215A46022367
:1029E0000094FEF7CFF840208DF8040048463946A1
:1029F0008022FDF771FC304678215A4681230094ED
:102A0000FEF7C0F8B5F5607F0AF1010AC4D141B004
:102A1000BDE8F08F40F2140040F22061C2F20000E5
:102A2000C2F2000100780A68104408607047000094
:102A30007047000080B540F23010C2F2000000F094
:102A40005DF840F60000C4F201000221BDE88040BC
:102A5000FDF7D8BE10B504460068B0F1804F08D12C
:102A6000FFF746FD4EF20010CEF200004FF080510D
:102A7000016002202077D4E9000CD4E9022E01681D
:102A8000236921F47C7122F46072114323F08002E7
:102A9000A369114319430160C0F82CE0C0F828C0B5
:102AA00061690163012141616177217710BD0000F7
:102AB000022101770068C16841F00101C16001682D
:102AC00041F0010101607047016841F21113CA68C9
:102AD00022F00102CA600A6A1A4203D0012101777A
:102AE000704700BF0A6A40F244431A42F6D10A68AE
:102AF00022F001020A600121017770470068016934
:102B0000C9071FBFC1685FEAC1716FF001010161B0
:102B100070470000B0B0FFF7DBF826AC201D242181
:102B2000FDF71FFC0220269001202A9010202B90F8
:102B3000002520462D95FFF705FB18B172B600BFA2
:102B4000FEE700BF0F20CDE9210521A80021CDE936
:102B500023552595FFF704FA10B172B6FEE700BFC2
:102B600040F600060025C4F201062995FFF7B6FAE3
:102B7000FFF794FAFFF7A2FA30460E2100224FF039
:102B80000E08FDF747FE112026ACCDE926050127EA
:102B9000304621462897FDF72DFD0220299030462A
:102BA0002146CDE926872895FDF724FD40F25054B3
:102BB000A6F53440C2F2000441F68021C0F20601BD
:102BC0004FF4804284E823002046C4E90352C4E95C
:102BD0000555C4E90755FDF729FE40F2F80BC2F28E
:102BE000000B4FF08041584640F8381F4FF4FA511F
:102BF00040F2F312CBE90F15CBE91125CBF8505079
:102C0000FFF728FFFFF79AFC2046FFF71BF940F279
:102C1000880641F26F24C2F20006C3F6832406F14F
:102C200040004FF080414FF0804223462090FFF754
:102C3000AFF806F158004FF080414FF08042234634
:102C40001F90FFF7A5F858464FF080414FF08042A3
:102C50002346FFF79DF80F200021FFF767FC40F2A5
:102C600008010FF67410C2F200010122FFF76AFE9C
:102C70000F201E21FFF75AFC40F200010FF66810EA
:102C8000C2F200010122FFF75DFEFFF773FE4FF471
:102C9000FA70FDF78DFCFFF73BFC40F21870C2F2B2
:102CA0000000A0F1080740F2A060C2F20000A0F10D
:102CB000080640F22860C2F2000040F6000AA0F1C7
:102CC0000804C4F2010A00BF0BF1180840F250508A
:102CD000C2F200004146FFF701F9DBE9080100F00C
:102CE000DDFC20F000412098FFF754F801F0B4FA21
:102CF00044F8080FDBE90A026160114600F0CEFCDF
:102D000020F000411F98FFF745F801F0A5FA46F8BA
:102D1000080FDBE90C027160114600F0BFFC20F0E7
:102D200000415846FFF736F801F096FA47F8080FC9
:102D300079600A201E21FFF7F9FB6420684380B206
:102D400048F689014843C20C40F28800C2F20000F4
:102D500000F1300948460FF69C01FDF739FA40F2C0
:102D600008014846C2F200010122FFF7EBFDFFF720
:102D700001FE504602210022FDF74CFD5046042181
:102D80000122FDF747FD504608210022FDF742FDD4
:102D90001420FDF70DFC01350F2D95D140F60005EF
:102DA000C4F20105284602210122CDF80890CDF891
:102DB00078800124FDF72EFD2846042100224FF0E3
:102DC0000008FDF727FD284608210022FDF722FD17
:102DD0003220FDF7EDFB284602210022FDF71AFD07
:102DE000284604210122FDF715FD2846082100226E
:102DF000FDF710FD3220FDF7DBFB28460221002203
:102E0000FDF708FD284604210022FDF703FD2846B2
:102E100008210122FDF7FEFC3220FDF7C9FB284600
:102E200002210022FDF7F6FC284604210122FDF7CD
:102E3000F1FC284608210022FDF7ECFC3220FDF7CA
:102E4000B7FB284602210122FDF7E4FC28460421B5
:102E50000022FDF7DFFC284608210022FDF7DAFCFE
:102E6000FFF756FB40F28807C2F200070020DA465F
:102E7000BC7003900020C4F208000024C7E904805D
:102E800040F250501E99C2F20000FFF727F8DAE92D
:102E9000080100F003FC20F000412098FEF77AFFC3
:102EA00001F0DAF940F22867C2F200073851DAE996
:102EB0000A023D196960114600F0F0FB20F0004164
:102EC0001F98FEF767FF01F0C7F940F2A069C2F250
:102ED000000949F80400DAE90C0209EB0408C8F813
:102EE0000410114600F0DAFB20F000415046FEF7D6
:102EF00051FF01F0B1F940F21872C2F200028346AC
:102F000010190E46416059F80400D8F804103F59D2
:102F10006D6842F804B002460B4600F0CBFE8046D6
:102F20008946384629463A462B4600F0C3FE4246BB
:102F30004B4600F0E5FB05460F46584631465A46DB
:102F400040F2A8593346C2F2000900F0B3FE2A4607
:102F50003B4600F0D5FB00F07BFB09EB040249F88F
:102F6000040002205160FDF723FB0834782C87D140
:102F7000D9E90064D9E9028A3046214642465346DF
:102F800000F0BEFBD9E90423CDE9043200F0B8FB20
:102F9000D9E90623CDE9063200F0B2FBD9E90823CE
:102FA000CDE9083200F0ACFBD9E90A23CDE90A32B9
:102FB00000F0A6FBD9E90C23CDE90C3200F0A0FB10
:102FC000D9E90E23CDE90F2300F09AFBD9E91023AC
:102FD000CDE9112300F094FBD9E91223CDE91323A5
:102FE00000F08EFBD9E91423CDE9152300F088FB0E
:102FF000D9E91623CDE9172300F082FBD9E918237C
:10300000CDE9192300F07CFBD9E91A23CDE91B2374
:1030100000F076FBD9E91C230E931D9200F070FBA3
:1030200000230022C4F22E0300F01EFC83468946D2
:1030300040F28807C2F20007304621465A464B4606
:10304000C7E906B901F01AF802460B4600F032FE55
:1030500004460D46404651465A464B4601F00EF88E
:1030600002460B4600F026FE22462B4600F048FBA7
:1030700004460D46DDE904105A464B4600F0FEFFBB
:1030800002460B4600F016FE22462B4600F038FBA7
:1030900004460D46DDE906105A464B4600F0EEFFA9
:1030A00002460B4600F006FE22462B4600F028FBA7
:1030B00004460D46DDE908105A464B4600F0DEFF97
:1030C00002460B4600F0F6FD22462B4600F018FBA8
:1030D00004460D46DDE90A105A464B4600F0CEFF85
:1030E00002460B4600F0E6FD22462B4600F008FBA8
:1030F00004460D46DDE90C105A464B4600F0BEFF73
:1031000002460B4600F0D6FD22462B4600F0F8FAA8
:1031100004460D46DDE90F015A464B4600F0AEFF6E
:1031200002460B4600F0C6FD22462B4600F0E8FAA8
:1031300004460D46DDE911015A464B4600F09EFF5C
:1031400002460B4600F0B6FD22462B4600F0D8FAA8
:1031500004460D46DDE913015A464B4600F08EFF4A
:1031600002460B4600F0A6FD22462B4600F0C8FAA8
:1031700004460D46DDE915015A464B4600F07EFF38
:1031800002460B4600F096FD22462B4600F0B8FAA8
:1031900004460D46DDE917015A464B4600F06EFF26
:1031A00002460B4600F086FD22462B4600F0A8FAA8
:1031B00004460D46DDE919015A464B4600F05EFF14
:1031C00002460B4600F076FD22462B4600F098FAA8
:1031D00004460D46DDE91B015A464B4600F04EFF02
:1031E00002460B4600F066FD22462B4600F088FAA8
:1031F00004460D461D980E995A464B4600F03EFF78
:1032000002460B4600F056FD22462B4600F078FAA7
:1032100000230022C4F22C0300F026FB00F018FA71
:1032200002460B46D7E90401C7E9082300F042FD36
:1032300000230022C4F2220300F062FA40F60004E8
:10324000C4F20104C7E90A0120461021FDF7D4FAAF
:1032500090B1039840F2F80AC0B2029D40F2A8561D
:103260000128C2F2000A4FF00008C2F2000600F086
:10327000AB8000283FD019E120461021FDF7BCFAB1
:1032800040F2F80AC2F2000AA8B900BF20460221A3
:103290000122FDF7BFFA204604210122FDF7BAFA08
:1032A000204608210122FDF7B5FA20461021FDF73E
:1032B000A3FA0028EAD06420FDF77AF9204602211B
:1032C0000022FDF7A7FA204604210022FDF7A2FA0A
:1032D000204608210022FDF79DFA0398029DC0B206
:1032E00040F2A85600284FF00008C2F200066BD04A
:1032F000012840F0DB800AF13800FFF7D9FB0520F8
:103300000521FFF713F940F20801BEA0C2F2000147
:103310000122FFF717FBD7E9060143F23333CDE96A
:103320001C10D7E90A014FF03332C3F6F373CDE92D
:103330001A1000F0BFFC1990B878D6E900898A46C7
:1033400006F108070025189005E000BF01350F2D94
:1033500007F108075AD04C464646D7E9008930465F
:10336000214642464B4601F021F80028EED1DDE926
:103370001C323046214600F081FE21F00044199AAB
:1033800021465346834601F011F810B918980028D9
:1033900046D1DDE91A325846214601F007F80028E7
:1033A000D4D1199A58462146534600F0F8FF002818
:1033B000CCD118980028C9D040F28807C2F2000783
:1033C000781C07F10C0131E00AF13800FFF77CFBB3
:1033D000204602210022FDF71DFA2046042100228A
:1033E000FDF718FA20460821012201230393FDF777
:1033F00011FA05200521FFF799F840F2080186A08F
:10340000C2F200010122FFF79DFA4DE0019D40F25A
:10341000F80A40F28807C2F2000AC2F2000715E07B
:1034200040F28807C2F20007391D38460A68BB68B7
:1034300001320A60591CB960002100221891012153
:1034400040F2F80ABA700170C2F2000A40F2A850C5
:103450004FF00008C2F200000E2D4FF00001039162
:103460001CDC1899D1B900EBC5040F26D4E9000182
:10347000DDE91C3200F002FEDDE91A3221F00041E4
:1034800000F08DFF30B1013EB54204F10804EDD1EA
:1034900002E000BF0120B87000200390019540F6C3
:1034A0000004029DC4F20104FFF764FA20460121E2
:1034B000FDF7A2F9002850D120460121FDF79CF923
:1034C0000028F9D0204602210022FDF7A3F920466A
:1034D00004210022FDF79EF9204608210122FDF774
:1034E00099F96420FDF764F8204602210022FDF7D7
:1034F00091F9204604210122FDF78CF9204608218C
:103500000022FDF787F96420FDF752F820460221DA
:103510000122FDF77FF9204604210022FDF77AF908
:10352000204608210022FDF775F96420FDF740F8D8
:10353000204602210022FDF76DF9204604210022D9
:10354000FDF768F9204608210022FDF763F9C7E975
:103550000188C7F80C80FEF7DBFF0A201421FEF774
:10356000E5FFFA68284631A1FCF732FE40F2080474
:10357000C2F20004284621460122FFF7E3F90A209F
:103580001E21FEF7D3FF7A6828462BA1FCF720FE08
:10359000284621460122FFF7D5F90A202821FEF707
:1035A000C5FFBA68284627A1FCF712FE40F20001C9
:1035B0002846C2F200010122FFF7C4F9FFF7DAF949
:1035C0003878797808433FF455ACC820FCF7F0FF11
:1035D000A7F800804EE400BF5354455020434F5598
:1035E0004E544552000000005045444F4D4554454F
:1035F000520000004C6F6164696E67203D202564B5
:103600002E2E2E0053746174653A202020205275AE
:103610006E6E696E6700000053746174653A202015
:1036200020205061757365642000000057414C4BA9
:10363000203D20256400000052554E20203D2025CD
:103640006400000053544550203D202564000000D4
:103650002DE9F04106460F4600F02AFC041E0D46F7
:1036600018BF0120284320F00040C0F17F6000F126
:10367000E040C00F0ED0301C18BF0120384320F0AE
:103680000040C0F17F6000F1E040C00F04BF0120A6
:10369000FCF796FE20462946BDE8F08121F0004265
:1036A00001F00043A2F16052B2F5801F28BFD2F1B1
:1036B0007F6C0BD95FEA001C43EAC20242EB5070F8
:1036C00018BF704728BF20F001007047B2F5801F77
:1036D000BCBF184670474FEA410C1CF5001F02D2D0
:1036E000084600F0FABF70B500F08EFB00000089BC
:1036F000FFF7F6BF4FF00040A0F5800070470000D4
:1037000010B591EA030F48BF83F0004300F1BE8477
:10371000841A71EB030C05D2121943EB0C03001B46
:1037200061EB0C014FEA1154A4EB135CDFF81CE1D0
:103730001EEA430F18BF9EEA445F00F0748021EA3E
:10374000045123EA0E0343F48013DCF1200E32D33C
:1037500022FA0CFE10EB0E0023FA0CFE41EB0E01D8
:10376000CCF1200E03FA0EFE10EB0E00CCF1200E71
:1037700051F10001B1F5801F32D201EB045112FA70
:103780000EF2BDE8104058BF7047401C38BF5FEADA
:10379000420218BF7047002814BF20F0010041F119
:1037A00000014FEA410313F5001F38BF7047A1F134
:1037B000C04100F077BB012A43EB0302ACF1200CBF
:1037C000DCF11F0E32BF4FF0000E23FA0CF310EBAA
:1037D000030041EB0451B4EB115FD0D0A1EB0451D5
:1037E00001F58011490801EB04515FEA30000ED366
:1037F00050F1000038BF12FA0EFE08D1BDE81040AB
:10380000C9E7401C38BF5FEA4202CAD1C3E7BDE83E
:1038100010404FEA410313F5001F38BF7047A1F174
:10382000C04100F03FBB9EEA445F08D011EA5E0F42
:10383000BDE8104004BF01F0004100207047BDE822
:10384000104070B500F0E0FA64FBBE3E0000E0FFFF
:10385000491058BFC1F140415B1058BFC3F140430C
:103860008B42EFF3008070472DE9C04130B4DFF8A0
:10387000A4C23CEA111418BF3CEA131400F0ED8016
:103880001CEA111481EA030544EAD57418BF1CEA46
:10389000131500F0C880A4EB050404F17F7404F54F
:1038A00000344FF0004545EAC12145EAC32341EA0F
:1038B000505143EA52534FEAC0204FEAC222994284
:1038C00008BF904200F09D804FEA13650FF2441646
:1038D000765D4FEA134506FB05F7C7F1807706FBD7
:1038E00007F74FEAD737A7FB03687642A7FB06CE58
:1038F000C8F5803838BFA8F1010807FB08E6A6FB29
:10390000028C4FF0000EE6FB03CEDCF1000CCEF192
:10391000004E38BFAEF1010EA6FB0C584FF0000769
:10392000E6FB0E87A1FB08C6A0FB07CE16EB0E0632
:103930004FF0000545F10005E1FB076515F1E04E8C
:103940007EBFA4F580345FEA46066D4116F180071C
:1039500045F100054FEA172747EA05674FEA1525A5
:103960004FEA0666A6F1DE46B6F1805F20D93846FA
:1039700005EBC47124F0010C01EB0C11BCF1FE6FDE
:1039800002D8F0BCBDE8008124425CBF01F5801E76
:103990009EEAC47F02D4F0BCBDE80081244200F15D
:1039A0003980A1F1C041F0BCBDE8004100F07ABA15
:1039B0004FEAD02040EA41504FEAD1214FEAD222CB
:1039C00042EA43524FEAD323A7FB028607FB036672
:1039D00005FB02661EEA0E0F58BFA6EB0056B6EBBB
:1039E00000564FEA520E4EEAC37E18EB0E0E56EB0F
:1039F000530EBCD518EB02085E417F1C55F1000543
:103A0000B5E74FF480154FF000074FF000064FF078
:103A10000008ACE701F1C04101F000414FF00000A7
:103A2000F0BCBDE800810CEA131511EA0C1F00D0B0
:103A30000CE013EA0C1F00F026804FF0000081EA32
:103A4000030101F00041F0BCBDE80081F0BCBDE81D
:103A5000004181EA030100F025BAF0BCBDE8004155
:103A600070B500F0D1F900BF097EFC3E00F007B848
:103A70004FF0000081EA030101F00041704781EA44
:103A8000030100F00FBAF0BCBDE8004122494FF03D
:103A900000007047FFFDFBF9F7F5F4F2F0EEEDEBF7
:103AA000E9E8E6E4E3E1E0DEDDDBDAD8D7D5D4D33C
:103AB000D1D0CFCDCCCBCAC8C7C6C5C4C2C1C0BF88
:103AC000BEBDBCBBBAB9B8B7B6B5B4B3B2B1B0AF8E
:103AD000AEADACABAAA9A8A8A7A6A5A4A3A3A2A172
:103AE000A09F9F9E9D9C9C9B9A999998979796952D
:103AF00095949393929191908F8F8E8E8D8C8C8BC9
:103B00008B8A898988888787868585848483838250
:103B1000828181800000FF070000F87F51EA030CDA
:103B200017D41CF5801F58BFBCF5801F00F106801C
:103B3000994218BF704708BF9042704707D711F5E8
:103B4000801F58BF13F5801F19D4994270478942CE
:103B500070471CF5801F08D5BCF5801FF7D58B4238
:103B600018BF704708BF824270474FF4001C1CEB1F
:103B7000410F38BF1CEB430F01D28B42704770B529
:103B800000F042F9922449004FF000514FF0805369
:103B9000FFF75EBE10F0004248BF4042B0FA80F32B
:103BA00010FA03F10AD0C3F11D0303F5806302EBA1
:103BB00003524FEA415002EBD12170474FF0000011
:103BC0007047000051EA030C17D41CF5801F58BF42
:103BD000BCF5801F00F10680994218BF704708BFEE
:103BE0009042704707D711F5801F58BF13F5801F0B
:103BF00019D499427047894270471CF5801F08D537
:103C0000BCF5801FF7D58B4218BF704708BF8242B2
:103C100070474FF4001C1CEB410F38BF1CEB430FE7
:103C200001D28B42704770B500F0EEF89224490043
:103C30004FF080514FF00053FFF70ABE51EA030CDA
:103C400017D41CF5801F58BFBCF5801F00F10680FB
:103C5000994218BF704708BF9042704707D711F5C7
:103C6000801F58BF13F5801F19D4994270478942AD
:103C700070471CF5801F08D5BCF5801FF7D58B4217
:103C800018BF704708BF824270474FF4001C1CEBFE
:103C9000410F38BF1CEB430F01D28B42704770B508
:103CA00000F0B2F8922449004FF000514FF08053D9
:103CB000FFF7CEBD70B5DFF848C11CEA111E1EBF6C
:103CC0001CEA13159EEA0C0F95EA0C0F00F06F80AA
:103CD00081EA03044EEAD47EAE4421EA4C1123EA81
:103CE0004C1341F4801143F48013AEF17F7EA1FBAD
:103CF000024CA0FB0365361955EB0C05A1FB034CE8
:103D00004CF10003A0FB021C16EB0C06654153F1BD
:103D10000003094218BF46F0010613F4007F0BD1DF
:103D20004FEA03314FEA053041EA155140EA165097
:103D300034036FF003020AE04FEAC3214FEAC520C3
:103D400041EA555140EA5650F4026FF0020202EB8C
:103D50002E4201EB025585EACE710AD05FEA440C8F
:103D600018BF24F0004450F1000041F1000120EAA6
:103D7000D47040F2FE7C624500D270BDA84214BFF0
:103D80004FF080444FF04044002E08BF0024BEF1A5
:103D9000806FA8BFA1F1C041BDE8704080F2828071
:103DA00001F1C04101F000414FF0000070470CEA02
:103DB00013159EEA0C0F18BF95EA0C0F06D081EA86
:103DC000030E4FF000000EF0004170BD00F01CF833
:103DD0008900013E00F007B800F009B84FEA430C33
:103DE0005FEA5C5C08D081EA030100F05BB84FEA4F
:103DF000410C5FEA5C5CF6D102494FF0000070476D
:103E00000000FF070000F87F0EF1020E2EF0030EF7
:103E10005EF8046B364205D4012A43EB030515F521
:103E2000001F12D8012841EB010C1CF5001F0CD813
:103E30000ED14FEAD17C0CEB4C0C0CF1020C15F5B9
:103E4000001F08BF4CEBD37C04E04FF0080C01E0EE
:103E50004FEAD37C0CEB4C0526FA05F606F0070674
:103E6000B6F1040C06D20EEB860CBDE870404CF0A7
:103E7000010C6047DFE80CF0090B02024FF0004133
:103E8000A1F500214FF0000070BD19461046012831
:103E900051EB010418BFD4F5001484BF002001F0D9
:103EA000004170BD0808A0F500114FEA31017047CC
:103EB0002DE9F04101F5801CBCF5001FC0F2C38064
:103EC0004FEA115C21EA0C5141F480110CF1FD0C18
:103ED0005FEA5C0C0CF5C07C01D3400049418902CB
:103EE00041EA905187023BA48E0EA45D0A0C04FBAC
:103EF00004F602FB06F6C6F14046A4FB0662F60D88
:103F000046EA422606FB06F4A4FB01235242C3F113
:103F1000404338BF5B1EA6FB02420024E6FB03249D
:103F2000D20B42EA4446A6FB0623A1FB02E2A3FB16
:103F300007E4A4184FF0000252F10002E3FB014233
:103F40006442C2F1404E38BFAEF1010EA6FB04231D
:103F50004FF00002E6FB0E32A2FB0346B6194FF00B
:103F6000000454F10004E2FB0264A1FB06E6A4FB9A
:103F700007E816EB08064FF0000858F10008E4FBCC
:103F800001687642C8F1405838BFA8F10108A2FB89
:103F900006E4A3FB08E52D194FF0000454F10004DA
:103FA000E2FB0854A1FB05E6A7FB04E818EB0608B2
:103FB0004FF0000656F10006E1FB048618F12005DB
:103FC00056F10006A80940EA8660B109A8F11B086D
:103FD00008F03F08B8F10A0F1CD901EB0C51BDE8FD
:103FE000F08100BFFCF5EEE8E2DDD8D3CFCBC7C34C
:103FF000C0BDB9B6B4B1AEACA9A7A5A3A19F9D9B06
:104000009A9896959392908F8D8C8B8988878685C8
:1040100084838281A0FB006800FB01F208EB420868
:10402000B8EB872807D5341858EB0104D5D5401CC8
:1040300051F10001D1E7341A78EB0104CDD4401ED0
:1040400071F10001C9E75FEA4C0C5FEA9C5C0DD19D
:1040500005D301F000414FF00000BDE8F081BDE85C
:10406000F04170B5FFF7D0FE6DDBFFBEBDE8F0415B
:1040700001494FF0000070470000F87F10B591EA49
:10408000030F48BF83F000433FF542AB841A71EB46
:10409000030C07D28CF0004C121943EB0C03001BED
:1040A00061EB0C014FEA1154A4EB135CDFF8A4E1BF
:1040B0001EEA430F18BF9EEA445F00F0B48021EA75
:1040C000045123EA6E035242C3EB6E0338BF5B1EFA
:1040D000DCF1200E25D322FA0CFE10EB0E0043FA81
:1040E0000CFE41EB0E01CCF1200E03FA0EFE10EB9C
:1040F0000E00CCF1200E51F1000129D401EB045146
:1041000012FA0EF2BDE8104058BF7047401C1CBFA9
:10411000B2F1004F704700280CBF491C20F001008D
:10412000704712EB020E43EB030218BF4FF0010E73
:104130004EEA4202ACF1200CDCF11E0E56D943FAD5
:104140000CFE10EB0E00CCF11E0E51F1FF31D5D557
:104150000EF1010E12FA0EFE404141EB010101EB9E
:10416000445C5FEA5C5C10D901EB045110EBDE703B
:1041700038BFBEF1004FBDE8104018BF704700289F
:104180000CBF491C20F00100704734D24FEAD42CF8
:1041900024F4006411F500111BD0B1FA81F20B3A3E
:1041A000A41AA41ED2F12003914030FA03F319435C
:1041B000904001EBCC7101EB0451002CBDE81040A4
:1041C000A8BF704701F1C04101F000414FF000006D
:1041D0007047B0FA80F310FA03F102D1BDE8104045
:1041E0007047E41A173C4805C90AE2E701EB04519D
:1041F000BDE81040704749104FEA300001EB045110
:10420000BDE8104002E04FF0000170474A0008BFCF
:104210000042F8D0B2F5001F28BF704701F00041FE
:104220004FF0000070479EEA445F07D011EA5E0F2E
:10423000BDE8104004BF002100207047BDE81040D9
:1042400070B5FFF7E1FD00BF40DFF63E104683F09A
:10425000004170470000E0FF43004FEAD30C4FEAF3
:104260003C0C43401FBF40070CF1605113F0FE4F60
:1042700070471CF0006F03D10CF000410020704724
:104280000CF0004343EA507040EACC0010B500F057
:10429000DEF900BF000000924FEA0001FFF702BE06
:1042A0004FF00041A1F500214FF0000070470000E1
:1042B00090EA010F48BF81F0004100F11A82421AD2
:1042C0003CBF801A89184FEAD052A2EBD1534FF06D
:1042D0007F4C1CEA410F18BF9CEA026F00F03B8044
:1042E0004FF0004C4CEA00204CEA012121FA03FC7B
:1042F00010EB0C0C1ED202F1FF325FEA1C2040EBE7
:10430000C25038BF70471CF07F0F4FEA400C18BFF7
:10431000BCF17F4F38BF7047C3F12003994008BFFD
:1043200020F00100BCF17F4F38BF7047A0F1C040C2
:1043300000F0D3B94FEA3C00000A40EBC25028BF5E
:104340001CF0FF0F4FEA400CE6D018BFBCF17F4FC6
:1043500038BF7047EAE79CEA026F05D010EA5C0FAD
:1043600008BF00F00040704710B500F070F900BFC2
:1043700064FBBE3E10B5FFF7D1FB0CBF012000204F
:1043800010BD10B5FFF7CAFB14BF0120002010BDFF
:1043900010B5FFF717FC8CBF0120002010BD10B531
:1043A000FFF710FC2CBF0120002010BD10B5FFF757
:1043B00045FC94BF0120002010BD10B5FFF73EFC66
:1043C00034BF0120002010BD4FF47F0C1CEAD01236
:1043D0001EBF1CEAD11392EA0C0F93EA0C0F00F0F7
:1043E000858090EA010F48BF42F4807240F4000CCF
:1043F00041F400002CF07F4120F07F4000B5A2EB9B
:10440000030281420FF2081CACEB504E9EF800E014
:10441000C0F100004FEA4E0E00FB0EFC38BF490011
:104420004FEA2C1C0CFB0EF34FEACE1E0EEB635E24
:104430004FEA112C0EFB0CFC4FEAC1214FEA1C5332
:1044400000FB031102F5FA024FEA112C0EFB0CFCE3
:104450004FEA01314FEADC4C00FB0C1142EB2242E7
:10446000C14228BF09184CEB03335DF804EB10EB95
:10447000410143EBC250B2F57C0F38BF704729D5DC
:1044800012F0F00F1CBF00F1C04000F00040704778
:10449000008182838485868788898B8C8D8E8F911D
:1044A0009293959697999A9C9D9FA0A2A3A5A7A841
:1044B000AAACAEB0B2B3B5B7B9BCBEC0C2C5C7C96D
:1044C000CCCED1D4D7D9DCDFE2E6E9ECF0F3F7FAD1
:1044D000FE0000004FEA400C0CF1807CBCF17E4FE6
:1044E00028BF7047B0F1C04000F0F7B80CEAD11314
:1044F00090EA010F48BF42F48072624538BF6345BD
:1045000007D213F47F0F16D080EA010000F00040BC
:10451000704710B500F09BF8097EFC3E00F005B82E
:1045200080EA010000F00040704780EA010000F0DE
:10453000004000F0D2B812F47F0F04BF0248704769
:1045400080EA010000F0C9B80000C07F4FF47F0C82
:104550001CEAD0121EBF1CEAD11392EA0C0F93EA98
:104560000C0F00F0478090EA010F48BF42F48072C0
:104570004FF0004C4CEA00204CEA012102EB030210
:10458000A0FB0113A2F50002002918BF43F00103AC
:104590005B0028BF4FEA330342EB22425FEA132C51
:1045A0004CEBC2502EBFBCEB436FB2F57C0F704793
:1045B0004FEA036CBCF1004F08BF20F00100B2F5D8
:1045C0007C0F38BF70470BD582F0FF0212F5803F99
:1045D000C8BF704700F1C040D8BF00F0004070472E
:1045E00000F5000C5FEA4C0C48BF7047B0F1C040CA
:1045F00000F073B80CEAD11390EA010F48BF42F4FF
:104600008072624538BF634504D280EA010000F041
:104610000040704710B500F01AF800BF8900013E55
:1046200000F007B800F009B85FEA410C5FEA1C6CC3
:1046300008D080EA010000F050B85FEA400C5FEA61
:104640001C6CF6D14FF00040A0F5800070470EF1D1
:10465000020E2EF0030E5EF8044B244204D44FEAFF
:104660004102B2F17F4F11D84FEA4003B3F17F4FBF
:104670000CD80ED14FEAD07C0CEB4C0C0CF1020C98
:10468000B2F17F4F08BF4CEBD17C04E04FF0080C37
:1046900001E04FEAD17C0CEB4C0324FA03F404F064
:1046A0000704B4F1040C06D20EEB840CBDE81040F4
:1046B0004CF0010C6047DFE80CF0070802024FF0F5
:1046C0000040A0F5800010BD0846420018BFD2F19E
:1046D000807288BF00F0004010BDFF2141EAD05039
:1046E000C005704790EA010F48BF81F000413FF5D7
:1046F000E6AD421A04D882F00042A0EB0200114459
:104700004FEAD052A2EBD1534FF07F4C1CEA410F3D
:1047100018BF9CEA026F4AD04FF0004C4CEA0020D0
:104720004CEA012121FA03FCB0EB0C0C0FD412F07F
:10473000FE0F36D05FEA4C001DD5001240EBC25090
:1047400038BF70471CF03F0F18BF70470BE05FEA9F
:104750001C20A2F1010240EBC25038BF70471CF090
:104760007F0F18BF7047C3F12003994014BF401E4C
:1047700020F0010070474FEA1223800808BF7047FD
:10478000B0FA80FCA2EB0C02CCF1280C60FA0CF021
:1047900093EA122F04BF00EBC25070474FEAC37078
:1047A0007047130A5FEADC1008BF7047F6E79CEA1F
:1047B000026F04D010EA5C0F08BF0020704710B5EC
:1047C000FFF745FF40DFF63E81F0004070470102F1
:1047D00000000000000000000102030406070809B1
:1047E00000000000010203040000000000000000BF
:1047F00000000000000000000000000000000000B9
:104800000000000000000000000000000000000C9C
:10481000000C000C000C000C000C000C000C000C38
:10482000000C000C0000000C000C00000000000058
:104830000000001B001B001B001B001B00000000F1
:104840000000000000000000000000000000000068
:104850000000000000008019801980198019C07FB5
:10486000C07F80190033C07FC07F00330033003326
:1048700000330000000000000000001E003F8075B3
:1048800080650074003C001E00078005806580651F
:104890008075003F001E000400040000000000704E
:1048A00000D840D8C0D880D900730006000C801B07
:1048B000C036C066C046C00680030000000000008D
:1048C0000000001E003F003300330033001E000CC8
:1048D000C03CC066806380618063C03E801C000075
:1048E000000000000000000C000C000C000C000C8C
:1048F00000000000000000000000000000000000B8
:10490000000000000000000080000001000300061D
:1049100000060004000C000C000C000C000C000C45
:1049200000040006000600030001800000200010C3
:104930000018000C000C000400060006000600062B
:10494000000600060004000C000C001800100020F7
:104950000000000C002D003F001E0033000000008E
:104960000000000000000000000000000000000047
:1049700000000000000000000000000C000C000C13
:10498000000CC0FFC0FF000C000C000C000C00006D
:104990000000000000000000000000000000000017
:1049A0000000000000000000000000000000000007
:1049B0000000000C000C00040004000800000000CF
:1049C0000000000000000000000000000000001EC9
:1049D000001E0000000000000000000000000000B9
:1049E00000000000000000000000000000000000C7
:1049F00000000000000000000000000C000C00009F
:104A00000000000000000003000300030006000691
:104A100000060006000C000C000C000C001800182A
:104A200000180000000000000000001E003F0033DE
:104A3000806180618061806D806D80618061806156
:104A40000033003F001E00000000000000000006D0
:104A5000000E001E003600260006000600060006B6
:104A60000006000600060006000600000000000028
:104A70000000001E003F80738061806180010003A0
:104A80000006000C001800300060807F807F00006E
:104A9000000000000000001C003E006300630003F3
:104AA000000E000E00038001800180618073003FD2
:104AB000001E00000000000000000006000E000EB6
:104AC000001E001E0016003600360066807F807FC4
:104AD0000006000600060000000000000000007F45
:104AE000007F006000600060006E007F80638001D6
:104AF000800180618073003F001E00000000000004
:104B00000000001E003F803380610060006E007F67
:104B100080738061806180618033003F001E0000EF
:104B2000000000000000807F807F80010003000300
:104B300000060006000C000C000C0008001800180D
:104B400000180000000000000000001E003F80630D
:104B5000806180610021001E003F80618061806172
:104B60008061003F001E0000000000000000001EE9
:104B7000003F00738061806180618073803F801D91
:104B8000800180610073003F001E000000000000F3
:104B900000000000000000000000000C000C0000FD
:104BA00000000000000000000000000C000C0000ED
:104BB00000000000000000000000000000000000F5
:104BC000000C000C00000000000000000000000CC1
:104BD000000C0004000400080000000000000000B9
:104BE00080008003000E003800600038000E800353
:104BF0008000000000000000000000000000000035
:104C0000000000000000807F807F00000000807FA7
:104C1000807F000000000000000000000000000095
:104C2000000000000000000000400070001C0007B1
:104C300080010007001C0070004000000000000020
:104C4000000000000000001F803FC071C060C00075
:104C5000C00180030007000E000C000C0000000CD7
:104C6000000C0000000000000000001E003F80312A
:104C700080718063806F806D806D806F8067006061
:104C80000032003E001C0000000000000000000E8A
:104C9000000E001B001B001B001B80318031803F79
:104CA000803F8031C060C060C06000000000000034
:104CB0000000007C007E0063006300630063007EF0
:104CC000007E0063806180618063007F007E000061
:104CD000000000000000001E003F80318061006085
:104CE0000060006000600060006080618031003F13
:104CF000001E0000000000000000007C007F006338
:104D00008063806180618061806180618061006317
:104D10000063007E007C0000000000000000807F37
:104D2000807F0060006000600060007F007F0060A6
:104D3000006000600060807F807F00000000000055
:104D40000000807F807F0060006000600060007F66
:104D5000007F006000600060006000600060000094
:104D6000000000000000001E003F803180610060F4
:104D70000060006080638063806180618031803F7B
:104D8000001E000000000000000080618061806162
:104D9000806180618061807F807F806180618061CF
:104DA0008061806180610000000000000000003F21
:104DB000003F000C000C000C000C000C000C000C60
:104DC000000C000C000C003F003F00000000000041
:104DD000000080018001800180018001800180014C
:104DE00080018001806180618073003F001E0000AF
:104DF000000000000000C060806100630066006683
:104E0000006C0078007C0066006600638061806151
:104E1000C060000000000000000000600060006052
:104E20000060006000600060006000600060006082
:104E30000060807F807F0000000000000000C071E3
:104E4000C071C07BC07AC06AC06AC06EC064C060F6
:104E5000C060C060C060C060C060000000000000B2
:104E6000000080718071807980798079806D806D9B
:104E7000806D8065806780678067806380630000E5
:104E8000000000000000001E003F003380618061D0
:104E90008061806180618061806180610033003F5A
:104EA000001E0000000000000000007E007F806304
:104EB0008061806180618063007F007E00600060AF
:104EC0000060006000600000000000000000001EA4
:104ED000003F00338061806180618061806180611A
:104EE000806580670033803F401E000000000000A6
:104EF0000000007E007F8063806180618063007FAE
:104F0000007E00660063006380618061C060000015
:104F1000000000000000000E001F803180310030D2
:104F20000038001E00078003806180618031003FEF
:104F3000001E0000000000000000C0FFC0FF000CC9
:104F4000000C000C000C000C000C000C000C000C01
:104F5000000C000C000C000000000000000080614C
:104F60008061806180618061806180618061806139
:104F7000806180618073003F001E0000000000001F
:104F80000000C060C060C060803180318031001B93
:104F9000001B001B001B000E000E000E0004000092
:104FA000000000000000C0C0C0C0C0C0C0C0C0C081
:104FB000C0CC804C804C805E805280528073806177
:104FC00080610000000000000000C0C080608061BF
:104FD0000033003B001E000C000C001E001F003BB5
:104FE00080718061C0C00000000000000000C0C0EF
:104FF0008061806100330033001E001E000C000C35
:10500000000C000C000C000C000C00000000000064
:105010000000803F803F8001000300030006000C79
:10502000000C0018001800300060807F807F0000B6
:1050300000000000000F000F000C000C000C000C22
:10504000000C000C000C000C000C000C000C000C00
:10505000000C000C000F000F0000001800180018D2
:10506000000C000C000C000C0006000600060006F8
:10507000000300030003000000000000001E001EEB
:1050800000060006000600060006000600060006F0
:10509000000600060006000600060006001E001EB0
:1050A0000000000C000C001E001200330033806171
:1050B000806100000000000000000000000000000F
:1050C00000000000000000000000000000000000E0
:1050D00000000000000000000000000000000000D0
:1050E00000000000E0FF0000000000380018000C85
:1050F00000000000000000000000000000000000B0
:10510000000000000000000000000000000000009F
:10511000000000000000001F803F80618001801FB0
:10512000803F80618063807FC03800000000000005
:1051300000000060006000600060006E007F80730F
:1051400080618061806180618073007F006E0000FB
:105150000000000000000000000000000000001E31
:10516000003F807380610060006080618073003F59
:10517000001E00000000000000008001800180018E
:105180008001801D803F80738061806180618061CB
:105190008073803F801D00000000000000000000C0
:1051A000000000000000001E003F00738061807F4F
:1051B000807F00608071003F001E00000000000042
:1051C0000000C007C00F000C000C807F807F000C27
:1051D000000C000C000C000C000C000C000C00007B
:1051E000000000000000000000000000801D803F63
:1051F000807380618061806180618073803F801DE9
:1052000080018063007F003E00000060006000605D
:105210000060006F807F807180618061806180614B
:1052200080618061806100000000000000000006D5
:10523000000600000000003E003E000600060006DA
:105240000006000600060006000600000000000040
:105250000006000600000000003E003E00060006BA
:1052600000060006000600060006000600060046CE
:10527000007E003C00000060006000600060806113
:1052800000630066006C007C007600630063806150
:10529000C0600000000000000000003E003E00066C
:1052A00000060006000600060006000600060006CE
:1052B00000060006000600000000000000000000DC
:1052C00000000000000080DDC0FFC0CEC0CCC0CC1C
:1052D000C0CCC0CCC0CCC0CCC0CC00000000000012
:1052E00000000000000000000000006F807F80715F
:1052F0008061806180618061806180618061000087
:105300000000000000000000000000000000001E7F
:10531000003F807380618061806180618073003FA5
:10532000001E00000000000000000000000000005F
:10533000006E007F80738061806180618061807316
:10534000007F006E006000600060006000000000F0
:1053500000000000801D803F80738061806180615B
:1053600080618073803F801D800180018001800109
:10537000000000000000000000000067803F0039CE
:1053800000300030003000300030003000300000CD
:105390000000000000000000000000000000001EEF
:1053A000803F80610060007F803F80018061007FDE
:1053B000001E0000000000000000000000080018AF
:1053C0000018007F007F001800180018001800184F
:1053D0000018801F800F0000000000000000000087
:1053E0000000000000008061806180618061806158
:1053F000806180618063807F803D0000000000004C
:1054000000000000000000000000C060803180311A
:105410008031001B001B001B000E000E0006000068
:10542000000000000000000000000000000080DD1F
:1054300080DD80DD005500550055007700770022A3
:10544000002200000000000000000000000000003A
:105450000000806100330033001E000C000C001EB1
:1054600000330033806100000000000000000000F5
:105470000000000080618061803100330033001B38
:10548000001B001B000E000E000E001C007C0070B4
:1054900000000000000000000000C07FC07F80010D
:1054A00000030006000C00180030C07FC07F000021
:1054B00000000000800380070006000600060006CA
:1054C0000006000E001C001C000E00060006000670
:1054D000000600068007800300060006000600069E
:1054E000000600060006000600060006000600068C
:1054F0000006000600060006000600060038003C14
:10550000000C000C000C000C000C000E0007000743
:10551000000E000C000C000C000C000C003C0038CD
:1055200000000000000000000000000000008038C3
:10553000807F004700000000000000000000000025
:10554000000000000000000000000000000000005B
:10555000000000000000000000100010001000100B
:1055600000100010000000100000000000280028BB
:105570000028000000000000000000000000000003
:1055800000240024007C00240048007C00480048DF
:10559000000000000038005400500038001400548F
:1055A0000054003800100000002000540058003063
:1055B000002800540014000800000000001000281B
:1055C00000280010003400480048003400000000AB
:1055D000001000100010000000000000000000009B
:1055E0000000000000080010002000200020002023
:1055F0000020002000100008002000100008000813
:105600000008000800080008001000200010003802
:105610000010002800000000000000000000000052
:105620000000000000100010007C001000100000BE
:10563000000000000000000000000000000000006A
:10564000000000100010001000000000000000002A
:105650000000003800000000000000000000000012
:10566000000000000000000000000010000000002A
:10567000000800080010001000100010002000209A
:10568000000000000038004400440054004400447E
:1056900000440038000000000010003000500010EE
:1056A000001000100010001000000000003800443E
:1056B00000440004000800100020007C00000000EE
:1056C00000380044000400180004000400440038BE
:1056D0000000000000080018002800280048007C96
:1056E0000008000800000000007C00400040007836
:1056F00000040004004400380000000000380044AA
:1057000000400078004400440044003800000000DD
:10571000007C000400080010001000200020002081
:1057200000000000003800440044003800440044F9
:1057300000440038000000000038004400440044E9
:10574000003C00040044003800000000000000009D
:105750000010000000000000000000100000000029
:105760000000000000000010000000000000001019
:105770000010001000000000000C0030004000305D
:10578000000C000000000000000000000000007C91
:105790000000007C0000000000000000000000008D
:1057A0000060001800040018006000000000000005
:1057B0000038004400040008001000100000001031
:1057C0000000000000380044004C0054005C004021
:1057D00000400038000000000010002800280028C9
:1057E0000028007C004400440000000000780044D1
:1057F00000440078004400440044007800000000A9
:1058000000380044004000400040004000440038A0
:1058100000000000007000480044004400440044C0
:105820000048007000000000007C00400040007C48
:10583000004000400040007C00000000007C004070
:1058400000400078004000400040004000000000A0
:105850000038004400400040005C00440044003830
:1058600000000000004400440044007C0044004468
:105870000044004400000000003800100010001038
:1058800000100010001000380000000000040004A8
:10589000000400040004000400440038000000007C
:1058A0000044004800500060005000480048004498
:1058B0000000000000400040004000400040004068
:1058C0000040007C000000000044006C006C0054AC
:1058D0000044004400440044000000000044006410
:1058E000006400540054004C004C004400000000D0
:1058F00000380044004400440044004400440038A0
:10590000000000000078004400440044007800409B
:105910000040004000000000003800440044004403
:1059200000440044005400380004000000780044A3
:105930000044004400780048004800440000000093
:1059400000380044004000300008000400440038E3
:1059500000000000007C001000100010001000107B
:105960000010001000000000004400440044004407
:10597000004400440044003800000000004400449B
:10598000004400280028002800100010000000003B
:1059900000440044005400540054006C00280028C7
:1059A000000000000044002800280010001000281B
:1059B00000280044000000000044004400280028A3
:1059C000001000100010001000000000007C000417
:1059D00000080010001000200040007C00000000C3
:1059E000001800100010001000100010001000102F
:1059F00000100018002000200010001000100010FF
:105A00000008000800000000003000100010001026
:105A100000100010001000100010003000100028CE
:105A2000002800440000000000000000000000000A
:105A30000000000000000000000000000000000066
:105A4000000000FE00200010000000000000000028
:105A500000000000000000000000000000380044CA
:105A6000003C0044004C00340000000000400040B6
:105A70000058006400440044006400580000000026
:105A8000000000000038004400400040004400389E
:105A900000000000000400040034004C00440044F6
:105AA000004C0034000000000000000000380044FA
:105AB000007C00400044003800000000000C001092
:105AC000007C00100010001000100010000000000A
:105AD000000000000034004C00440044004C00343E
